:100000000C9424010C9443010C9450010C94410174
:100010000C9441010C9441010C9441010C94BD01DC
:100020000C9441010C9441010C9441010C94410148
:100030000C9441010C9441010C9441010C94410138
:100040000C9441010C9441010C9441010C94410128
:100050000C9441010C9441010C9441010C94410118
:100060000C9441010C944101000000000000005F6D
:1000700000000007000700147F147F14242A7F2A41
:10008000122313086462364955225000050300000C
:10009000001C2241000041221C0014083E081408E4
:1000A000083E0808005030000008080808080060F2
:1000B00060000020100804023E5149453E00427F86
:1000C000400042615149462141454B311814127F8D
:1000D0001027454545393C4A494930017109050316
:1000E0003649494936064949291E0036360000007E
:1000F0005636000008142241001414141414004150
:100100002214080201510906324979413E7E11113B
:10011000117E7F494949363E414141227F4141227A
:100120001C7F494949417F090909013E4149497AF2
:100130007F0808087F00417F41002040413F017F48
:10014000081422417F404040407F020C027F7F0420
:1001500008107F3E4141413E7F090909063E415159
:10016000215E7F09192946464949493101017F012C
:10017000013F4040403F1F2040201F3F4038403F4C
:100180006314081463070870080761514945430068
:100190007F41410002040810200041417F00040219
:1001A0000102044040404040000102040020545439
:1001B00054787F48444438384444442038444448C0
:1001C0007F3854545418087E0901020C5252523E92
:1001D0007F0804047800447D40002040443D007FB7
:1001E0001028440000417F40007C041804787C08FB
:1001F00004047838444444387C1414140808141453
:10020000187C7C080404084854545420043F44409B
:10021000203C4040207C1C2040201C3C4030403C86
:1002200044281028440C5050503C4464544C440022
:100230000836410000007F00000041360800100829
:10024000081008000000000011241FBECFEFD8E006
:10025000DEBFCDBF11E0A0E0B1E0EAE4FAE002C009
:1002600005900D92AC31B107D9F723E0ACE1B1E0D4
:1002700001C01D92AE35B207E1F70E9462030C94F3
:1002800023050C9400008F938FB78F939F9385B1B4
:1002900092E0892785B99F918F918FBF8F91189593
:1002A0008F938FB78F939F9385B194E0892785B9FA
:1002B0009F918F918FBF8F9118950895CF93DF9362
:1002C000EC01682F80E00E94480363E083E191E045
:1002D0000E9438036C2F8FE00E94480363E083E1A3
:1002E00091E00E9438036C2F8EE10E94480363E086
:1002F00083E191E00E9438036C2F8DE20E94480355
:1003000063E083E191E00E9438036C2F8CE30E944C
:10031000480363E083E191E00E9438036C2F8BE493
:100320000E94480362E083E191E00E943803DF917C
:10033000CF910C944D030E94A70465E070E00E94E9
:1003400017044FE0489F9001499F300D112460E051
:1003500084E0820F0E9448032FEF81EE94E0215049
:1003600080409040E1F700C0000062E089E191E048
:100370000E9438030E944D0308951F920F920FB6FA
:100380000F9211242F933F934F935F936F937F931B
:100390008F939F93AF93BF93EF93FF9380911C0133
:1003A000833648F080911D0110921C018F5F80936D
:1003B0001D010E949B0180911D018C3338F0109229
:1003C0001D0180911E018F5F80931E0180911C0191
:1003D0008F5F80931C01FF91EF91BF91AF919F912F
:1003E0008F917F916F915F914F913F912F910F90DE
:1003F0000FBE0F901F90189529986623A9F02B9A8D
:1004000027E030E090E0AC01022E02C05595479500
:100410000A94E2F740FF0AC02C9A2D9A2D98215099
:10042000310988F7299A08952B98EACF2C98F5CFAF
:1004300060E00C94FC01CF93DF93219A229A239AD7
:10044000249A259A2A9A299A8FE39CE90197F1F731
:1004500000C000002A989FEF2AE683E091502040D8
:100460008040E1F700C000002A9A299881E20E94AA
:10047000180283E10E94180286E00E94180282ECB2
:100480000E94180280E20E94180289E00E9418026D
:1004900080E80E94180280E40E941802C8EFD1E0B0
:1004A00061E080E00E94FC012197D1F788E00E9482
:1004B00018028CE0DF91CF910C94180280E80E9422
:1004C000180280E40E94180210925C0310925D03EF
:1004D000E4E6F1E088EF91E0DF019C011D922150FC
:1004E0003040E1F70895811103C084E20C941802B2
:1004F00080E2FCCF962F969596959695E82FF0E0A2
:1005000084E5989FE00DF11D1124EC59FE4F2081E8
:10051000677081E090E001C0880F6A95EAF7442394
:1005200019F0282B2083089580952823FBCF8F92E4
:100530009F92AF92BF92DF92EF92FF920F931F9321
:10054000CF93DF9300D000D00F92CDB7DEB7E82F66
:10055000F62E80320CF44DC0E05285E0E802B00186
:10056000112468597F4F45E050E0CE0101960E946A
:10057000B7048E010F5F1F4F95E0F99E50011124C3
:1005800087E0F89E40011124E12CEA141B040CF4CE
:1005900063C080915C038F5F9F2D990F990F9F0D12
:1005A000890F80935C03843558F080915D0310922D
:1005B0005C038F5F97E0F99E800D112480935D03AB
:1005C00080915D03803320F010925C0310925D03F4
:1005D0000F900F900F900F900F90DF91CF911F9180
:1005E0000F91FF90EF90DF90BF90AF909F908F9012
:1005F0000895EE0FFF0BEC5DFE4F00811181011598
:10060000110509F0B9CF45E050E068E670E0ADCFE4
:10061000ED0D5E0D8E2D6F2D0E940B04D801A80FDD
:10062000B11D2C9130E08D2D0E940B0402C0359538
:1006300027958A95E2F741E020FF40E06E2F852F55
:100640000E947A02D394E0915D0350915C03D81428
:100650001904F4F2E39499CFD12CF5CFE82F80322E
:1006600034F4EE0FFF0BEC5DFE4F71836083089551
:100670001F93CF93DF93162FEC018991811104C052
:10068000DF91CF911F910895612F0E949702F5CFBE
:1006900080935C0360935D030895CF93DF9380E8BC
:1006A0000E94180280E40E941802C4E6D1E061E0D2
:1006B00089910E94FC0183E0CC35D807C1F7DF9116
:1006C000CF91089557985698219A229AF89457985E
:1006D0005698219A229A0E941B0228985F9883E0DC
:1006E00080936900809169008860809369008DB370
:1006F00083608DBB789460E071E083E00E942E03FC
:1007000090E080E00E945E018CE090E00E945E013B
:1007100088E190E00E945E0184E290E00E945E0128
:1007200065E071E082E00E942E0365E282E20E94B1
:10073000480362E085E191E00E9438030E944D0386
:100740006AE071E085E00E942E036FE171E086E0CF
:100750000E942E0387EA8093B3008091B0008260EC
:100760008093B0008091B10087608093B100809148
:100770007000826080937000C2E2D0E04F9B24C082
:10078000CE010597CC9700F565E28C2F0E944803B7
:1007900062E087E191E00E9438030E944D032F97A9
:1007A00065E28C2F0E94480362E085E191E00E949F
:1007B00038030E944D032FEF83EC99E021508040D5
:1007C0009040E1F700C000004E9BD8CFCE010497C7
:1007D000CC97A0F665E28C2F0E94480362E087E187
:1007E00091E00E9438030E944D032F9665E28C2F02
:1007F0000E94480362E085E191E00E9438030E9474
:100800004D032FEF83EC99E0215080409040E1F7B9
:1008100000C00000B3CF991B79E004C0991F961760
:1008200008F0961B881F7A95C9F78095089597FB65
:10083000072E16F4009407D077FD09D00E942B04F0
:1008400007FC05D03EF4909581959F4F08957095D3
:1008500061957F4F0895AA1BBB1B51E107C0AA1FDA
:10086000BB1FA617B70710F0A61BB70B881F991F51
:100870005A95A9F780959095BC01CD010895CF9226
:10088000DF92EF92FF92CF93DF93CDB7DEB72A9737
:100890000FB6F894DEBF0FBECDBF89879A87A985B2
:1008A000BA852D913D914D915C9129833A834B837B
:1008B0005C83232B242B252B41F424E239ED4BE5DB
:1008C00057E029833A834B835C8369817A818B81EA
:1008D0009C812DE133EF41E050E00E94C0046901AA
:1008E0007A01A7EAB1E49B01AC010E94DF046983AD
:1008F0007A838B839C83ACEEB4EFA70196010E94B0
:10090000ED049B01AC0189819A81AB81BC81820F8E
:10091000931FA41FB51FB7FF03C00197A109B048DB
:10092000E985FA8580839183A283B3839F772A9692
:100930000FB6F894DEBF0FBECDBFDF91CF91FF9011
:10094000EF90DF90CF9008950E943F0408958FE0CC
:1009500091E00E943F040895B0E0A0E080930F0171
:1009600090931001A0931101B09312010895FB011F
:10097000DC0102C005900D9241505040D8F7089517
:10098000052E97FB1EF400940E94D70457FD07D054
:100990000E94F20407FC03D04EF40C94D704509547
:1009A0004095309521953F4F4F4F5F4F089590955B
:1009B0008095709561957F4F8F4F9F4F08950E944E
:1009C0001405A59F900DB49F900DA49F800D911DBF
:1009D00011240895B7FF0C94DF040E94DF04821BEA
:1009E000930B0895A1E21A2EAA1BBB1BFD010DC09B
:1009F000AA1FBB1FEE1FFF1FA217B307E407F507CF
:100A000020F0A21BB30BE40BF50B661F771F881FAA
:100A1000991F1A9469F760957095809590959B0140
:100A2000AC01BD01CF010895A29FB001B39FC001E9
:100A3000A39F700D811D1124911DB29F700D811D0A
:0A0A40001124911D0895F894FFCFD2
:100A4A00FF000000000E1B1C1F0E103E7E3E100110
:0C0A5A0000000003000200060005000080
:00000001FF
