:100000000C9424010C9441010C9441010C94410185
:100010000C9441010C9441010C9441010C94410158
:100020000C9441010C9441010C9441010C94410148
:100030000C9441010C9441010C9441010C94410138
:100040000C9441010C9441010C9441010C94410128
:100050000C9441010C9441010C9441010C94410118
:100060000C9441010C944101000000000000005F6D
:1000700000000007000700147F147F14242A7F2A41
:10008000122313086462364955225000050300000C
:10009000001C2241000041221C0014083E081408E4
:1000A000083E0808005030000008080808080060F2
:1000B00060000020100804023E5149453E00427F86
:1000C000400042615149462141454B311814127F8D
:1000D0001027454545393C4A494930017109050316
:1000E0003649494936064949291E0036360000007E
:1000F0005636000008142241001414141414004150
:100100002214080201510906324979413E7E11113B
:10011000117E7F494949363E414141227F4141227A
:100120001C7F494949417F090909013E4149497AF2
:100130007F0808087F00417F41002040413F017F48
:10014000081422417F404040407F020C027F7F0420
:1001500008107F3E4141413E7F090909063E415159
:10016000215E7F09192946464949493101017F012C
:10017000013F4040403F1F2040201F3F4038403F4C
:100180006314081463070870080761514945430068
:100190007F41410002040810200041417F00040219
:1001A0000102044040404040000102040020545439
:1001B00054787F48444438384444442038444448C0
:1001C0007F3854545418087E0901020C5252523E92
:1001D0007F0804047800447D40002040443D007FB7
:1001E0001028440000417F40007C041804787C08FB
:1001F00004047838444444387C1414140808141453
:10020000187C7C080404084854545420043F44409B
:10021000203C4040207C1C2040201C3C4030403C86
:1002200044281028440C5050503C4464544C440022
:100230000836410000007F00000041360800100829
:10024000081008000000000011241FBECFEFD8E006
:10025000DEBFCDBF11E0A0E0B1E0E8E0F7E002C012
:1002600005900D92A631B107D9F723E0A6E1B1E0E0
:1002700001C01D92A535B207E1F70E94E7020C9478
:1002800082030C9400000895CF93DF93EC01682F54
:1002900080E00E94CD0263E08FE091E00E94BD0209
:1002A0006C2F8FE00E94CD0263E08FE091E00E940E
:1002B000BD026C2F8EE10E94CD0263E08FE091E0E1
:1002C0000E94BD026C2F8DE20E94CD0263E08FE0A0
:1002D00091E00E94BD026C2F8CE30E94CD0263E08E
:1002E0008FE091E00E94BD026C2F8BE40E94CD0252
:1002F00062E08FE091E00E94BD02DF91CF910C940B
:10030000D20229986623A9F02B9A27E030E090E0EA
:10031000AC01022E02C0559547950A94E2F740FFC2
:100320000AC02C9A2D9A2D982150310988F7299AC4
:1003300008952B98EACF2C98F5CF60E00C948101BA
:10034000CF93DF93219A229A239A249A259A2A9A64
:10035000299A8FE39CE90197F1F700C000002A98E1
:100360009FEF2AE683E0915020408040E1F700C0F3
:1003700000002A9A299881E20E949D0183E10E944F
:100380009D0186E00E949D0182EC0E949D0180E219
:100390000E949D0189E00E949D0180E80E949D01CC
:1003A00080E40E949D01C8EFD1E061E080E00E94FE
:1003B00081012197D1F788E00E949D018CE0DF91B7
:1003C000CF910C949D0180E80E949D0180E40E94E1
:1003D0009D011092530310925403EBE5F1E088EF76
:1003E00091E0DF019C011D9221503040E1F708951A
:1003F000811103C084E20C949D0180E2FCCF962F12
:10040000969596959695E82FF0E084E5989FE00DF7
:10041000F11D1124E55AFE4F2081677081E090E0C4
:1004200001C0880F6A95EAF7442319F0282B20832E
:10043000089580952823FBCF8F929F92AF92BF9211
:10044000DF92EF92FF920F931F93CF93DF9300D031
:1004500000D00F92CDB7DEB7E82FF62E80320CF425
:100460004DC0E05285E0E802B001112468597F4F89
:1004700045E050E0CE0101960E9479038E010F5FA6
:100480001F4F95E0F99E5001112487E0F89E40012E
:100490001124E12CEA141B040CF463C08091530373
:1004A0008F5F9F2D990F990F9F0D890F8093530395
:1004B000843558F080915403109253038F5F97E076
:1004C000F99E800D1124809354038091540380334E
:1004D00020F010925303109254030F900F900F903E
:1004E0000F900F90DF91CF911F910F91FF90EF90A0
:1004F000DF90BF90AF909F908F900895EE0FFF0B0D
:10050000E55EFE4F008111810115110509F0B9CF9B
:1005100045E050E068E670E0ADCFED0D5E0D8E2D4C
:100520006F2D0E946D03D801A80FB11D2C9130E0F2
:100530008D2D0E946D0302C0359527958A95E2F7AF
:1005400041E020FF40E06E2F852F0E94FF01D394F1
:10055000E091540350915303D8141904F4F2E39436
:1005600099CFD12CF5CFE82F803234F4EE0FFF0B6A
:10057000E55EFE4F7183608308951F93CF93DF93F1
:10058000162FEC018991811104C0DF91CF911F9149
:100590000895612F0E941C02F5CF8093530360934E
:1005A00054030895CF93DF9380E80E949D0180E477
:1005B0000E949D01CBE5D1E061E089910E9481011B
:1005C00083E0C335D807C1F7DF91CF9108955798DD
:1005D0005698219A229A0E94A0010E94E30160E0AD
:1005E00071E083E00E94B30290E080E00E94440149
:1005F0008CE090E00E94440188E190E00E94440178
:1006000084E290E00E94440165E071E082E00E9493
:10061000B30265E282E20E94CD0262E081E191E0F4
:100620000E94BD020E94D2026AE071E085E00E9451
:10063000B30266E171E086E00E94B302C2E2D0E05C
:100640004F9B24C0CE010497CD9760F465E28C2FB8
:100650000E94CD0262E083E191E00E94BD020E940F
:10066000D2022F9765E28C2F0E94CD0262E081E1D9
:1006700091E00E94BD020E94D2022FEF89E698E12C
:10068000215080409040E1F700C000004E9BD8CF41
:10069000CE010497CD9760F465E28C2F0E94CD02C5
:1006A00062E083E191E00E94BD020E94D2022F9697
:1006B00065E28C2F0E94CD0262E081E191E00E9410
:1006C000BD020E94D2022FEF89E698E121508040BE
:1006D0009040E1F700C00000B3CF991B79E004C05F
:1006E000991F961708F0961B881F7A95C9F7809571
:1006F0000895FB01DC0102C005900D92415050406D
:08070000D8F70895F894FFCF2B
:10070800FF000000000E1B1C1F0E103E7E3E100353
:06071800000200060000D3
:00000001FF
