:100000000C9424010C9441010C9441010C94410185
:100010000C9441010C9441010C9441010C94410158
:100020000C9441010C9441010C9441010C94430146
:100030000C9441010C9441010C9441010C94410138
:100040000C9441010C9441010C9441010C94410128
:100050000C9441010C9441010C9441010C94410118
:100060000C9441010C944101000000000000005F6D
:1000700000000007000700147F147F14242A7F2A41
:10008000122313086462364955225000050300000C
:10009000001C2241000041221C0014083E081408E4
:1000A000083E0808005030000008080808080060F2
:1000B00060000020100804023E5149453E00427F86
:1000C000400042615149462141454B311814127F8D
:1000D0001027454545393C4A494930017109050316
:1000E0003649494936064949291E0036360000007E
:1000F0005636000008142241001414141414004150
:100100002214080201510906324979413E7E11113B
:10011000117E7F494949363E414141227F4141227A
:100120001C7F494949417F090909013E4149497AF2
:100130007F0808087F00417F41002040413F017F48
:10014000081422417F404040407F020C027F7F0420
:1001500008107F3E4141413E7F090909063E415159
:10016000215E7F09192946464949493101017F012C
:10017000013F4040403F1F2040201F3F4038403F4C
:100180006314081463070870080761514945430068
:100190007F41410002040810200041417F00040219
:1001A0000102044040404040000102040020545439
:1001B00054787F48444438384444442038444448C0
:1001C0007F3854545418087E0901020C5252523E92
:1001D0007F0804047800447D40002040443D007FB7
:1001E0001028440000417F40007C041804787C08FB
:1001F00004047838444444387C1414140808141453
:10020000187C7C080404084854545420043F44409B
:10021000203C4040207C1C2040201C3C4030403C86
:1002200044281028440C5050503C4464544C440022
:100230000836410000007F00000041360800100829
:10024000081008000000000011241FBECFEFD8E006
:10025000DEBFCDBF11E0A0E0B1E0E4E7F9E002C00D
:1002600005900D92AA31B107D9F723E0AAE1B1E0D8
:1002700001C01D92AD35B207E1F70E9449030C940D
:10028000B8040C9400008F939F9381E090E09093CA
:100290001D0180931C019F918F9118950E943C0431
:1002A00065E070E00E94AC039C012F5F3F4F6091BE
:1002B0001A0170911B010297C1F1243031058CF4B1
:1002C00021303105C9F02230310539F180911A0110
:1002D00090911B018F9724F010921B0110921A012C
:1002E00008952430310549F5CB01019690931B0107
:1002F00080931A0181E307C0CB01019690931B0103
:1003000080931A0184E00E942F0362E083E191E070
:100310000E941F030E943403D9CFCB010196909312
:100320001B0180931A0183E1EECFCB0101969093DC
:100330001B0180931A0182E2E6CFCB0101969093D4
:100340001B0180931A018FE3DECF0895CF93DF93D3
:10035000EC01682F80E00E942F0363E085E191E0CB
:100360000E941F036C2F8FE00E942F0363E085E142
:1003700091E00E941F036C2F8EE10E942F0363E027
:1003800085E191E00E941F036C2F8DE20E942F03F4
:1003900063E085E191E00E941F036C2F8CE30E94D3
:1003A0002F0363E085E191E00E941F036C2F8BE433
:1003B0000E942F0362E085E191E00E941F03DF911C
:1003C000CF910C94340329986623A9F02B9A27E047
:1003D00030E090E0AC01022E02C0559547950A949A
:1003E000E2F740FF0AC02C9A2D9A2D98215031092E
:1003F00088F7299A08952B98EACF2C98F5CF60E0DA
:100400000C94E301CF93DF93219A229A239A249AA2
:10041000259A2A9A299A8FE39CE90197F1F700C05F
:1004200000002A989FEF2AE683E091502040804008
:10043000E1F700C000002A9A299881E20E94FF019A
:1004400083E10E94FF0186E00E94FF0182EC0E948E
:10045000FF0180E20E94FF0189E00E94FF0180E825
:100460000E94FF0180E40E94FF01C8EFD1E061E03B
:1004700080E00E94E3012197D1F788E00E94FF010C
:100480008CE0DF91CF910C94FF0180E80E94FF0186
:1004900080E40E94FF0110925B0310925C03E3E68C
:1004A000F1E088EF91E0DF019C011D922150304086
:1004B000E1F70895811103C084E20C94FF0180E20A
:1004C000FCCF962F969596959695E82FF0E084E5CB
:1004D000989FE00DF11D1124ED59FE4F20816770AA
:1004E00081E090E001C0880F6A95EAF7442319F093
:1004F000282B2083089580952823FBCF8F929F92ED
:10050000AF92BF92DF92EF92FF920F931F93CF9320
:10051000DF9300D000D00F92CDB7DEB7E82FF62ED4
:1005200080320CF44DC0E05285E0E802B0011124A5
:1005300068597F4F45E050E0CE0101960E944C047F
:100540008E010F5F1F4F95E0F99E5001112487E047
:10055000F89E40011124E12CEA141B040CF463C042
:1005600080915B038F5F9F2D990F990F9F0D890FCE
:1005700080935B03843558F080915C0310925B0399
:100580008F5F97E0F99E800D112480935C0380912A
:100590005C03803320F010925B0310925C030F9099
:1005A0000F900F900F900F90DF91CF911F910F91AF
:1005B000FF90EF90DF90BF90AF909F908F90089545
:1005C000EE0FFF0BED5DFE4F00811181011511054E
:1005D00009F0B9CF45E050E068E670E0ADCFED0D31
:1005E0005E0D8E2D6F2D0E94A003D801A80FB11DA6
:1005F0002C9130E08D2D0E94A00302C035952795E7
:100600008A95E2F741E020FF40E06E2F852F0E949F
:100610006102D394E0915C0350915B03D8141904F8
:10062000F4F2E39499CFD12CF5CFE82F803234F453
:10063000EE0FFF0BED5DFE4F7183608308951F93F6
:10064000CF93DF93162FEC018991811104C0DF91C4
:10065000CF911F910895612F0E947E02F5CF809364
:100660005B0360935C030895CF93DF9380E80E945F
:10067000FF0180E40E94FF01C3E6D1E061E08991BF
:100680000E94E30183E0CB35D807C1F7DF91CF911A
:10069000089557985698219A229A0E9402020E9421
:1006A000450260E071E083E00E94150390E080E085
:1006B0000E94A6018CE090E00E94A60188E190E0F3
:1006C0000E94A60184E290E00E94A60165E071E02C
:1006D00082E00E94150365E282E20E942F0362E03D
:1006E00087E191E00E941F030E9434036AE071E0F9
:1006F00085E00E9415036EE171E086E00E9415031B
:10070000809181008D608093810086E998E99093C3
:1007100089008093880080916F00826080936F00D1
:10072000789480911C0190911D01892B31F00E94D9
:100730004E0110921D0110921C0189B189B1F1CFB7
:10074000991B79E004C0991F961708F0961B881F23
:100750007A95C9F78095089597FB072E16F40094B3
:1007600007D077FD09D00E94C00307FC05D03EF4F6
:10077000909581959F4F0895709561957F4F08954D
:10078000AA1BBB1B51E107C0AA1FBB1FA617B707B7
:1007900010F0A61BB70B881F991F5A95A9F78095D3
:1007A0009095BC01CD010895CF92DF92EF92FF9218
:1007B000CF93DF93CDB7DEB72A970FB6F894DEBF9D
:1007C0000FBECDBF89879A87A985BA852D913D91A6
:1007D0004D915C9129833A834B835C83232B242B9B
:1007E000252B41F424E239ED4BE557E029833A8388
:1007F0004B835C8369817A818B819C812DE133EF0E
:1008000041E050E00E94550469017A01A7EAB1E491
:100810009B01AC010E94740469837A838B839C835F
:10082000ACEEB4EFA70196010E9482049B01AC01DB
:1008300089819A81AB81BC81820F931FA41FB51F50
:10084000B7FF03C00197A109B048E985FA85808305
:100850009183A283B3839F772A960FB6F894DEBF65
:100860000FBECDBFDF91CF91FF90EF90DF90CF9083
:1008700008950E94D40308958FE091E00E94D4036C
:100880000895B0E0A0E080930F0190931001A09331
:100890001101B09312010895FB01DC0102C0059023
:1008A0000D9241505040D8F70895052E97FB1EF445
:1008B00000940E946C0457FD07D00E94870407FC37
:1008C00003D04EF40C946C045095409530952195CE
:1008D0003F4F4F4F5F4F089590958095709561956C
:1008E0007F4F8F4F9F4F08950E94A904A59F900DA1
:1008F000B49F900DA49F800D911D11240895B7FF02
:100900000C9474040E947404821B930B0895A1E25A
:100910001A2EAA1BBB1BFD010DC0AA1FBB1FEE1F79
:10092000FF1FA217B307E407F50720F0A21BB30BC4
:10093000E40BF50B661F771F881F991F1A9469F740
:1009400060957095809590959B01AC01BD01CF019C
:100950000895A29FB001B39FC001A39F700D811D98
:100960001124911DB29F700D811D1124911D0895B8
:04097000F894FFCF29
:10097400FF000000000E1B1C1F0E103E7E3E1001E7
:0A098400000000050003000200005F
:00000001FF
