:100000000C9424010C9441010C9441010C94410185
:100010000C9441010C9441010C9441010C94410158
:100020000C9441010C9441010C9441010C94410148
:100030000C9441010C9441010C9441010C94410138
:100040000C9441010C9441010C9441010C94410128
:100050000C9441010C9441010C9441010C94410118
:100060000C9441010C944101000000000000005F6D
:1000700000000007000700147F147F14242A7F2A41
:10008000122313086462364955225000050300000C
:10009000001C2241000041221C0014083E081408E4
:1000A000083E0808005030000008080808080060F2
:1000B00060000020100804023E5149453E00427F86
:1000C000400042615149462141454B311814127F8D
:1000D0001027454545393C4A494930017109050316
:1000E0003649494936064949291E0036360000007E
:1000F0005636000008142241001414141414004150
:100100002214080201510906324979413E7E11113B
:10011000117E7F494949363E414141227F4141227A
:100120001C7F494949417F090909013E4149497AF2
:100130007F0808087F00417F41002040413F017F48
:10014000081422417F404040407F020C027F7F0420
:1001500008107F3E4141413E7F090909063E415159
:10016000215E7F09192946464949493101017F012C
:10017000013F4040403F1F2040201F3F4038403F4C
:100180006314081463070870080761514945430068
:100190007F41410002040810200041417F00040219
:1001A0000102044040404040000102040020545439
:1001B00054787F48444438384444442038444448C0
:1001C0007F3854545418087E0901020C5252523E92
:1001D0007F0804047800447D40002040443D007FB7
:1001E0001028440000417F40007C041804787C08FB
:1001F00004047838444444387C1414140808141453
:10020000187C7C080404084854545420043F44409B
:10021000203C4040207C1C2040201C3C4030403C86
:1002200044281028440C5050503C4464544C440022
:100230000836410000007F00000041360800100829
:10024000081008000000000011241FBECFEFD8E006
:10025000DEBFCDBF11E0A0E0B1E0EAE9F6E002C008
:1002600005900D92AC31B107D9F723E0ACE1B1E0D4
:1002700001C01D92A635B207E1F70E94DE020C9480
:100280004B030C9400000895CF93DF93EC01682F8B
:1002900081E00E94C40263E084E191E00E94B40224
:1002A0006C2F80E10E94C40263E084E191E00E942F
:1002B000B4026C2F8FE10E94C40263E084E191E0FC
:1002C0000E94B4026C2F8EE20E94C40263E084E1BB
:1002D00091E00E94B4026C2F8DE30E94C40263E09F
:1002E00086E191E00E94B402DF91CF910C94C902A3
:1002F00029986623A9F02B9A27E030E090E0AC0122
:10030000022E02C0559547950A94E2F740FF0AC0B5
:100310002C9A2D9A2D982150310988F7299A089501
:100320002B98EACF2C98F5CF60E00C947801CF930E
:10033000DF93219A229A239A249A259A2A9A299A13
:100340008FE39CE90197F1F700C000002A989FEF26
:100350002AE683E0915020408040E1F700C0000091
:100360002A9A299881E20E94940183E10E949401D3
:1003700086E00E94940182EC0E94940180E20E9437
:10038000940189E00E94940180E80E94940180E435
:100390000E949401C8EFD1E061E080E00E94780102
:1003A0002197D1F788E00E9494018CE0DF91CF91F2
:1003B0000C94940180E80E94940180E40E949401CE
:1003C0001092540310925503ECE5F1E088EF91E0B0
:1003D000DF019C011D9221503040E1F70895811109
:1003E00003C084E20C94940180E2FCCF962F969592
:1003F00096959695E82FF0E084E5989FE00DF11D25
:100400001124E45AFE4F2081677081E090E001C022
:10041000880F6A95EAF7442319F0282B2083089562
:1004200080952823FBCF8F929F92AF92BF92DF924D
:10043000EF92FF920F931F93CF93DF9300D000D0E2
:100440000F92CDB7DEB7E82FF62E80320CF44DC0F8
:10045000E05285E0E802B001112468597F4F45E081
:1004600050E0CE0101960E9442038E010F5F1F4FA4
:1004700095E0F99E5001112487E0F89E4001112477
:10048000E12CEA141B040CF463C0809154038F5FC9
:100490009F2D990F990F9F0D890F809354038435D9
:1004A00058F080915503109254038F5F97E0F99EA6
:1004B000800D11248093550380915503803320F0E3
:1004C00010925403109255030F900F900F900F90BD
:1004D0000F90DF91CF911F910F91FF90EF90DF90E0
:1004E000BF90AF909F908F900895EE0FFF0BE45E4A
:1004F000FE4F008111810115110509F0B9CF45E0CA
:1005000050E068E670E0ADCFED0D5E0D8E2D6F2DE5
:100510000E943603D801A80FB11D2C9130E08D2D1B
:100520000E94360302C0359527958A95E2F741E08F
:1005300020FF40E06E2F852F0E94F601D394E091BA
:10054000550350915403D8141904F4F2E39499CF4D
:10055000D12CF5CFE82F803234F4EE0FFF0BE45EA0
:10056000FE4F7183608308951F93CF93DF93162FFF
:10057000EC018991811104C0DF91CF911F91089501
:10058000612F0E941302F5CF8093540360935503AB
:100590000895CF93DF9380E80E94940180E40E9445
:1005A0009401CCE5D1E061E089910E94780183E07B
:1005B000C435D807C1F7DF91CF9108950E94970104
:1005C0000E94DA016AE071E082E00E94AA0262E21F
:1005D00082E20E94C40262E088E191E00E94B402DB
:1005E00065E071E083E00E94AA0260E071E084E0CF
:1005F0000E94AA026FE071E085E00E94AA0290E0EA
:1006000080E00E9444018CE090E00E94440188E177
:1006100090E00E94440184E290E00E9444016AE07C
:1006200071E082E00E94AA0265E282E20E94C402B6
:1006300062E088E191E00E94B4020E94C902C0E039
:100640006C2F82E20E94C40262E08AE191E00E9483
:10065000B4020E94C9022FEF89E698E12150804040
:100660009040E1F700C00000CF5FEACF991B79E02E
:1006700004C0991F961708F0961B881F7A95C9F732
:1006800080950895FB01DC0102C005900D92415058
:0A0690005040D8F70895F894FFCF0A
:10069A00FF00CCCCFFFF00CCCC000E1B1C1F0E10A1
:0C06AA003E7E3E1003000400020005002C
:00000001FF
