:100000000C9424010C9441010C9441010C94410185
:100010000C9441010C9441010C9441010C94410158
:100020000C9441010C9441010C9441010C94410148
:100030000C9441010C9441010C9441010C94410138
:100040000C9441010C9441010C9441010C94410128
:100050000C9441010C9441010C9441010C94410118
:100060000C9441010C944101000000000000005F6D
:1000700000000007000700147F147F14242A7F2A41
:10008000122313086462364955225000050300000C
:10009000001C2241000041221C0014083E081408E4
:1000A000083E0808005030000008080808080060F2
:1000B00060000020100804023E5149453E00427F86
:1000C000400042615149462141454B311814127F8D
:1000D0001027454545393C4A494930017109050316
:1000E0003649494936064949291E0036360000007E
:1000F0005636000008142241001414141414004150
:100100002214080201510906324979413E7E11113B
:10011000117E7F494949363E414141227F4141227A
:100120001C7F494949417F090909013E4149497AF2
:100130007F0808087F00417F41002040413F017F48
:10014000081422417F404040407F020C027F7F0420
:1001500008107F3E4141413E7F090909063E415159
:10016000215E7F09192946464949493101017F012C
:10017000013F4040403F1F2040201F3F4038403F4C
:100180006314081463070870080761514945430068
:100190007F41410002040810200041417F00040219
:1001A0000102044040404040000102040020545439
:1001B00054787F48444438384444442038444448C0
:1001C0007F3854545418087E0901020C5252523E92
:1001D0007F0804047800447D40002040443D007FB7
:1001E0001028440000417F40007C041804787C08FB
:1001F00004047838444444387C1414140808141453
:10020000187C7C080404084854545420043F44409B
:10021000203C4040207C1C2040201C3C4030403C86
:1002200044281028440C5050503C4464544C440022
:100230000836410000007F00000041360800100829
:10024000081008000000000011241FBECFEFD8E006
:10025000DEBFCDBF11E0A0E0B1E0E6EFF5E002C007
:1002600005900D92A431B107D9F723E0A4E1B1E0E4
:1002700001C01D92AE34B207E1F70E94B4020C94A3
:10028000F9020C9400002998662311F02B9A01C002
:100290002B9827E030E090E0AC01022E02C055958B
:1002A00047950A94E2F740FF02C02C9A01C02C98AF
:1002B0002D9A2D982150310978F7299A089560E0F8
:1002C0000C944301CF93DF93219A229A239A249A84
:1002D000259A2A9A299A8FE39CE90197F1F700C0A1
:1002E00000002A989FEF2AE683E09150204080404A
:1002F000E1F700C000002A9A299881E20E945F017C
:1003000083E10E945F0186E00E945F0182EC0E940F
:100310005F0180E20E945F0189E00E945F0180E846
:100320000E945F0180E40E945F01C8EFD1E061E0BC
:1003300080E00E9443012197D1F788E00E945F018D
:100340008CE0DF91CF910C945F0180E80E945F0107
:1003500080E40E945F0110920C0310920D0388EF5D
:1003600091E0E4E1F1E0DF019C011D922150304079
:10037000E1F70895811102C084E201C080E20C948B
:100380005F01962F969596959695E82FF0E084E577
:10039000989FE00DF11D1124EC5EFE4F677081E027
:1003A00090E001C0880F6A95EAF7442319F0908124
:1003B000892B03C0809590818923808308958F9233
:1003C0009F92AF92BF92DF92EF92FF920F931F9393
:1003D000CF93DF9300D000D01F92CDB7DEB7F62EBB
:1003E000282F082E000C330B80326CF0205231097C
:1003F00085E0829FB001839F700D112468597F4F63
:1004000045E050E00EC0220F331FF901E25FFC4FC0
:10041000008111810115110559F445E050E068E6AD
:1004200070E0CE0101960E94F0028E010F5F1F4F17
:1004300085E0F89E5001112497E0F99E40011124B7
:10044000D12C8D2D90E08A159B0544F5E12C8E2D45
:1004500090E08815990504F58D2D6F2D0E94E4021A
:10046000F801E80FF11D208130E08E2D0E94E4029A
:1004700002C0359527958A95E2F760910D0380912A
:100480000C036E0D20FF02C041E001C040E08D0D65
:100490000E94C101E394DBCFD394D3CF80910C03AE
:1004A00091E0980F8F2D880F880F8F0D890F84355D
:1004B00018F480930C030BC010920C0380910D0371
:1004C0008F5F97E0F99E800D112480930D0380913A
:1004D0000D03803320F010920C0310920D030F9047
:1004E0000F900F900F900F90DF91CF911F910F9170
:1004F000FF90EF90DF90BF90AF909F908F90089506
:1005000080323CF4E82FEE0FFF0BE25FFC4F71836B
:10051000608308951F93CF93DF93162FEC01899189
:10052000882321F0612F0E94DF01F9CFDF91CF9165
:100530001F91089580930C0360930D030895CF934A
:10054000DF9380E80E945F0180E40E945F01C4E1C4
:10055000D1E061E089910E94430183E0CC30D8076B
:10056000C1F7DF91CF9108950E9462010E94A50119
:1005700065E071E082E00E94800262E282E20E9415
:100580009A0262E08FE091E00E948A0260E071E0EE
:1005900083E00E94800266E080E00E949A0262E0AE
:1005A00081E191E00E948A026CE080E00E949A0260
:1005B0000E949F022FEF83ED90E3215080409040F6
:1005C000E1F700C00000F6CF991B79E004C0991F45
:1005D000961708F0961B881F7A95C9F7809508959D
:1005E000FB01DC0102C005900D9241505040D8F74C
:0605F0000895F894FFCF0E
:1005F600FF00000000386C707C381C1C3E1C080292
:0406060000030000ED
:00000001FF
