:100000000C9424010C9443010C9450010C94410174
:100010000C9441010C9441010C9441010C94160282
:100020000C9441010C9441010C9441010C94410148
:100030000C9441010C9441010C9441010C94410138
:100040000C9441010C9441010C9441010C94410128
:100050000C9441010C9441010C9441010C94410118
:100060000C9441010C944101000000000000005F6D
:1000700000000007000700147F147F14242A7F2A41
:10008000122313086462364955225000050300000C
:10009000001C2241000041221C0014083E081408E4
:1000A000083E0808005030000008080808080060F2
:1000B00060000020100804023E5149453E00427F86
:1000C000400042615149462141454B311814127F8D
:1000D0001027454545393C4A494930017109050316
:1000E0003649494936064949291E0036360000007E
:1000F0005636000008142241001414141414004150
:100100002214080201510906324979413E7E11113B
:10011000117E7F494949363E414141227F4141227A
:100120001C7F494949417F090909013E4149497AF2
:100130007F0808087F00417F41002040413F017F48
:10014000081422417F404040407F020C027F7F0420
:1001500008107F3E4141413E7F090909063E415159
:10016000215E7F09192946464949493101017F012C
:10017000013F4040403F1F2040201F3F4038403F4C
:100180006314081463070870080761514945430068
:100190007F41410002040810200041417F00040219
:1001A0000102044040404040000102040020545439
:1001B00054787F48444438384444442038444448C0
:1001C0007F3854545418087E0901020C5252523E92
:1001D0007F0804047800447D40002040443D007FB7
:1001E0001028440000417F40007C041804787C08FB
:1001F00004047838444444387C1414140808141453
:10020000187C7C080404084854545420043F44409B
:10021000203C4040207C1C2040201C3C4030403C86
:1002200044281028440C5050503C4464544C440022
:100230000836410000007F00000041360800100829
:10024000081008000000000011241FBECFEFD8E006
:10025000DEBFCDBF11E0A0E0B1E0E0E4F2E102C01A
:1002600005900D92AE34B107D9F723E0AEE4B1E0CA
:1002700001C01D92A239B207E1F70E944A040C9412
:100280001E090C9400008F938FB78F939F9385B1B5
:1002900092E0892785B99F918F918FBF8F91189593
:1002A0008F938FB78F939F9385B194E0892785B9FA
:1002B0009F918F918FBF8F91189561E18AE00E9485
:1002C000300461E085E191E00E94200469E185E06D
:1002D0000E94300461E080E291E00E9420040E94CC
:1002E0003504189902C0189BFCCF089580914F01E6
:1002F0009CEF980F9D33B8F460914E010E9430043A
:1003000062E08DE291E00E94200460914E016C3029
:1003100050F06C5080914F010E94300462E08FE2F7
:1003200091E00C94200408950F931F93CF93DF93D3
:10033000CDB7DEB729970FB6F894DEBF0FBECDBF9D
:10034000809151011F928F9381E391E09F938F934E
:100350008E010F5F1F4F1F930F930E94EA0560E00D
:1003600081E00E94300461E0C8010E9420040E94E4
:1003700035040F900F900F900F900F900F902996CB
:100380000FB6F894DEBF0FBECDBFDF91CF911F91A6
:100390000F910895CF93DF93EC01682F80E00E94C6
:1003A000300463E086E391E00E9420046C2F8FE02C
:1003B0000E94300463E086E391E00E9420046C2FE9
:1003C0008EE10E94300463E086E391E00E94200405
:1003D0006C2F8DE20E94300463E086E391E00E947E
:1003E00020046C2F8CE30E94300463E086E391E0EC
:1003F0000E9420046C2F8BE40E94300462E086E3AC
:1004000091E00E942004DF91CF910C9435040E946A
:10041000D10565E070E00E9441054FE0489F9001E2
:10042000499F300D1124C901049608951F920F921F
:100430000FB60F9211242F933F934F935F936F93B7
:100440007F938F939F93AF93BF93EF93FF9380918D
:1004500050018F5F80935001843638F080915101B4
:10046000109250018F5F80935101909151018091C2
:100470004E01943140F490915001937059F48F5F84
:1004800080934E0107C094519832C8F79091500163
:1004900090FFF5CF80914E018D3330F010924E01D8
:1004A0000E94070280934F01FF91EF91BF91AF919E
:1004B0009F918F917F916F915F914F913F912F917C
:1004C0000F900FBE0F901F9018950F931F93CF930F
:1004D000DF93CDB7DEB729970FB6F894DEBF0FBE16
:1004E000CDBF20914F01809100019091010128170B
:1004F000190609F05EC080914E018A518E3008F0D5
:1005000058C00E94460361E18AE00E94300461E025
:1005100088E391E00E94200469E185E00E943004B4
:1005200061E080E291E00E94200463E28AE00E94A0
:10053000300461E083E491E00E9420048091510145
:100540001F928F9381E391E09F938F938E010F5FB2
:100550001F4F1F930F930E94EA0563E284E30E94FA
:10056000300461E0C8010E9420040E9435040F900D
:100570000F900F900F900F900F90189BFECF10923E
:10058000510110924E010E94070280934F010E9478
:10059000460390E080E00E94CA018CE090E00E9457
:1005A000CA0188E190E00E94CA0184E290E00E94C2
:1005B000CA0129960FB6F894DEBF0FBECDBFDF91FA
:1005C000CF911F910F91089529986623A9F02B9A36
:1005D00027E030E090E0AC01022E02C0559547952F
:1005E0000A94E2F740FF0AC02C9A2D9A2D982150C8
:1005F000310988F7299A08952B98EACF2C98F5CFDE
:1006000060E00C94E402CF93DF93219A229A239A1C
:10061000249A259A2A9A299A8FE39CE90197F1F75F
:1006200000C000002A989FEF2AE683E09150204006
:100630008040E1F700C000002A9A299881E20E94D8
:10064000000383E10E94000386E00E94000382EC25
:100650000E94000380E20E94000389E00E940003E0
:1006600080E80E94000380E40E940003C8EFD1E00C
:1006700061E080E00E94E4022197D1F788E00E94C7
:1006800000038CE0DF91CF910C94000380E80E947E
:10069000000380E40E9400031092900310929103E3
:1006A000E8E9F1E088EF91E0DF019C011D92215023
:1006B0003040E1F70895811103C084E20C940003F7
:1006C00080E2FCCF962F969596959695E82FF0E0D0
:1006D00084E5989FE00DF11D1124E856FE4F20811E
:1006E000677081E090E001C0880F6A95EAF74423C3
:1006F00019F0282B2083089580952823FBCF8F9213
:100700009F92AF92BF92DF92EF92FF920F931F934F
:10071000CF93DF9300D000D00F92CDB7DEB7E82F94
:10072000F62E80320CF44DC0E05285E0E802B001B4
:10073000112468597F4F45E050E0CE0101960E9498
:10074000E1058E010F5F1F4F95E0F99E50011124C6
:1007500087E0F89E40011124E12CEA141B040CF4FC
:1007600063C0809190038F5F9F2D990F990F9F0D0C
:10077000890F80939003843558F0809191031092F3
:1007800090038F5F97E0F99E800D11248093910371
:1007900080919103803320F0109290031092910386
:1007A0000F900F900F900F900F90DF91CF911F91AE
:1007B0000F91FF90EF90DF90BF90AF909F908F9040
:1007C0000895EE0FFF0BE85AFE4F008111810115CD
:1007D000110509F0B9CF45E050E068E670E0ADCF13
:1007E000ED0D5E0D8E2D6F2D0E943505D801A80FE1
:1007F000B11D2C9130E08D2D0E94350502C035953C
:1008000027958A95E2F741E020FF40E06E2F852F83
:100810000E946203D394E091910350919003D81405
:100820001904F4F2E39499CFD12CF5CFE82F80325C
:1008300034F4EE0FFF0BE85AFE4F71836083089586
:100840001F93CF93DF93162FEC018991811104C080
:10085000DF91CF911F910895612F0E947F03F5CF03
:1008600080939003609391030895CF93DF9380E882
:100870000E94000380E40E940003C8E9D1E061E027
:1008800089910E94E40283E0C039D807C1F7DF9163
:10089000CF910895579856982098219A229A0E94AD
:1008A00003030E945D01F89428985F985E9883E0A6
:1008B00080936900809169008860809369008DB39E
:1008C00083608DBB789462E071E083E00E9416043F
:1008D00090E080E00E94CA018CE090E00E94CA0192
:1008E00088E190E00E94CA0184E290E00E94CA017F
:1008F00067E071E082E00E94160465E282E20E94F5
:10090000300462E08CE491E00E9420040E943504EF
:100910006CE071E085E00E94160463E571E086E01A
:100920000E94160487EA8093B3008091B000826031
:100930008093B0008091B10087608093B100809176
:1009400070008260809370000E9465020E947601B0
:100950000E9435040E9465024F9B33C080910001C4
:10096000909101010597CC9760F50E94650265E2C0
:10097000809100010E94300462E08FE291E00E94C9
:1009800020040E94350480910001909101010F978D
:10099000909301018093000165E20E94300462E0BF
:1009A0008CE491E00E9420040E9435040E946502BC
:1009B0002FEF81EE94E0215080409040E1F700C09D
:1009C00000000E9465020E9476010E9435040E9488
:1009D00065024E9B33C08091000190910101049704
:1009E000CC9760F50E94650265E2809100010E944B
:1009F000300462E08FE291E00E9420040E943504FE
:100A000080910001909101010F96909301018093D4
:100A1000000165E20E94300462E08CE491E00E94F3
:100A200020040E9435040E9465022FEF81EE94E0BD
:100A3000215080409040E1F700C000000E94650214
:100A40000E9476010E94350465E2809100010E94B7
:100A5000300462E08CE491E00E9420040E9435049E
:100A60000E9494010E9465026FCF991B79E004C037
:100A7000991F961708F0961B881F7A95C9F78095DD
:100A8000089597FB072E16F4009407D077FD09D040
:100A90000E94550507FC05D03EF4909581959F4F27
:100AA0000895709561957F4F0895AA1BBB1B51E176
:100AB00007C0AA1FBB1FA617B70710F0A61BB70BCE
:100AC000881F991F5A95A9F780959095BC01CD0173
:100AD0000895CF92DF92EF92FF92CF93DF93CDB73D
:100AE000DEB72A970FB6F894DEBF0FBECDBF898759
:100AF0009A87A985BA852D913D914D915C91298365
:100B00003A834B835C83232B242B252B41F424E253
:100B100039ED4BE557E029833A834B835C83698148
:100B20007A818B819C812DE133EF41E050E00E947E
:100B3000840869017A01A7EAB1E49B01AC010E9433
:100B4000A30869837A838B839C83ACEEB4EFA701FF
:100B500096010E94B1089B01AC0189819A81AB8109
:100B6000BC81820F931FA41FB51FB7FF03C001975D
:100B7000A109B048E985FA8580839183A283B38374 tksa2vfLGC
:100B80009F772A960FB6F894DEBF0FBECDBFDF91D8
:100B9000CF91FF90EF90DF90CF9008950E9469056C
:100BA000089581E191E00E9469050895B0E0A0E018
:100BB0008093110190931201A0931301B09314013B
:100BC0000895FB01DC0102C005900D924150504098
:100BD000D8F70895AEE0B0E0E0EFF5E00C94C4087B
:100BE0000D891E8986E08C831A8309838FEF9FE726
:100BF0009E838D83AE01475E5F4F6F89788DCE01F6
:100C000001960E940D062F813885020F131FF801EF
:100C100010822E96E4E00C94E008AFE0B0E0E3E14F
:100C2000F6E00C94B6087C013B018A01DC011796C2
:100C30001C921E92169713968C9181FFBEC19AE06A
:100C4000292EFE0131964F01D70113969C91F30195
:100C500093FD859193FF81913F01882309F444C15D
:100C6000853239F493FD859193FF81913F0185325F
:100C700029F4B70190E00E94F607E6CFB12C412C91
:100C8000512CBFE1B51538F08B3209F188F4803270
:100C900001F1833221F157FC3AC020ED280F2A30B0
:100CA00040F556FE1FC0B29C200D1124B22E06C086
:100CB0008D3291F0803379F7689450F8F30193FD09
:100CC000859193FF81913F018111DBCF20C0689412
:100CD00051F8689452F8F2CF689453F8EFCF6894C3
:100CE00054F8ECCF429C200D1124422E689455F804
:100CF000E5CF8E3229F456FCF7C0689456F8DECF63
:100D00008C3619F4689457F8D9CF8836B9F2982FF1
:100D10009F7D95549330C0F0833681F18337A1F1E4
:100D2000833509F05BC0D801CD90DD908D016B2D2E
:100D300070E056FC02C06FEF7FEFC6010E94E00733
:100D40005C01689457F80AC00C5F1F4FEFE3E9831A
:100D5000AA24A394B12C6401E89457F853FE29C047
:100D6000342CA114B10451F5332009F46DCFB7012F
:100D700080E290E00E94F6073A94F6CFD8018C9179
:100D800089830E5F1F4FE4CFF801C190D1908F018E
:100D90006B2D70E056FC02C06FEF7FEFC6010E9422
:100DA000EB075C01D9CFB70180E290E00E94F60723
:100DB0004A944A141B0409F0B0F7D2CFF60157FC4D
:100DC000859157FE81916F01B70190E00E94F6076F
:100DD00031103A94B1E0AB1AB108C3CF843619F0A0
:100DE000893609F071C0F80157FE67C061917191B1
:100DF000819191918F01E52DEF76DE2E97FF09C04D
:100E000090958095709561957F4F8F4F9F4F689417
:100E1000D7F82AE030E0A4010E942608C82EC8189E
:100E2000AC2C5D2CD6FE0CC0E89450F8CB1440F4EA
:100E3000D4FE05C0D2FC03C05D2D5E7E552EAB2CCA
:100E400054FE93C0FE01EC0DF11D8081803309F04A
:100E500085C0652D697E562E752D7870372E53FC12
:100E600093C050FE8DC0BC2CA41410F4B40CBA185E
:100E700054FE90C0B70180E390E00E94F60752FE56
:100E800007C088E751FC88E590E0B7010E94F607AB
:100E9000CB1408F48BC0CA94D12C8FEFC81AD80A8F
:100EA000C80CD91CD6018E916D01B70190E00E944B
:100EB000F6078C149D04B1F757CF61917191072EFD
:100EC000000C880B990B96CFD52CE894D4F82AE027
:100ED000853729F1F52DF97FDF2E8037A1F058F401
:100EE0008835A1F08F36D1F0F701868197812F9652
:100EF000E2E10C94D2088837B9F7D4FE02C06894B6
:100F0000D2F820E10CC06894D4F8F7CF54FE03C0A7
:100F10002F2F2660D22E20E132E002C028E030E000
:100F2000F801D7FE15C041915191619171914C87A3
:100F30005D876E877F878F01A4016C857D858E8597
:100F40009F850E942608C82EC818E894D7F868CF55
:100F500081919191AC0170E060E0E9CF52FC02C058
:100F6000A3947ACFA394A39477CF852D867809F4A0
:100F700073CFF6CFB70180E290E00E94F607A3940A
:100F8000A414C0F3312C74CF342C3A18A41408F4F0
:100F90006FCFF8CF852D867809F47ACF8BE251FE9A
:100FA00080E257FC8DE2B70190E070CFB70180E39B
:100FB00090E00E94F607BA946BCF8FEF9FEF97CF28
:100FC000FC010590615070400110D8F78095909514
:100FD0008E0F9F1F0895FC01615070400190011019
:100FE000D8F7809590958E0F9F1F08950F931F93AC
:100FF000CF93DF93182F092FEB018B8181FD09C05F
:101000001FEF0FEF812F902FDF91CF911F910F9145
:10101000089582FF14C02E813F818C819D81281705
:1010200039073CF4E881F981CF01019699838883DF
:1010300010838E819F8101969F838E83E3CFE88505
:10104000F985812F0995892BA1F3DACFFA01AA2717
:10105000283051F1203181F1E8946F936E7F6E5FFB
:101060007F4F8F4F9F4FAF4FB1E03ED0B4E03CD0A9
:10107000670F781F891F9A1FA11D680F791F8A1F8C
:10108000911DA11D6A0F711D811D911DA11D20D0F3
:1010900009F468943F912AE0269F11243019305DAD
:1010A0003193DEF6CF010895462F4770405D41939E
:1010B000B3E00FD0C9F7F6CF462F4F70405D4A33EB
:1010C00018F0495D31FD4052419302D0A9F7EACFB3
:1010D000B4E0A6959795879577956795BA95C9F7E2
:1010E00000976105710508959B01AC010A2E0694D5
:1010F0005795479537952795BA95C9F7620F731F8E
:10110000841F951FA01D0895052E97FB1EF40094C3
:101110000E949B0857FD07D00E94ED0807FC03D0F2
:101120004EF40C949B0850954095309521953F4F77
:101130004F4F5F4F089590958095709561957F4FC3
:101140008F4F9F4F08950E940F09A59F900DB49F48
:10115000900DA49F800D911D11240895B7FF0C944C
:10116000A3080E94A308821B930B08952F923F921D
:101170004F925F926F927F928F929F92AF92BF92A7
:10118000CF92DF92EF92FF920F931F93CF93DF9353
:10119000CDB7DEB7CA1BDB0B0FB6F894DEBF0FBEB0
:1011A000CDBF09942A88398848885F846E847D84FD
:1011B0008C849B84AA84B984C884DF80EE80FD80FF
:1011C0000C811B81AA81B981CE0FD11D0FB6F89475
:1011D000DEBF0FBECDBFED010895A1E21A2EAA1BFE
:1011E000BB1BFD010DC0AA1FBB1FEE1FFF1FA217D7
:1011F000B307E407F50720F0A21BB30BE40BF50BD4
:10120000661F771F881F991F1A9469F7609570955C
:10121000809590959B01AC01BD01CF010895A29FDF
:10122000B001B39FC001A39F700D811D1124911DBA
:10123000B29F700D811D1124911D0895F894FFCF68
:101240002200FF000000000E1B1C1F0E103E7E3E01
:10125000100100000042656D2076696E646F210008
:1012600041706572746520737461727400050006C4
:10127000002530336400030047414D45204F56455B
:0E128000522100506F6E746F733A200002000E
:00000001FF
