:100000000C9424010C9441010C9441010C94410185
:100010000C9441010C9441010C9441010C94410158
:100020000C9441010C9441010C9441010C94410148
:100030000C9441010C9441010C9441010C94410138
:100040000C9441010C9441010C9441010C94410128
:100050000C9441010C9441010C9441010C94410118
:100060000C9441010C944101000000000000005F6D
:1000700000000007000700147F147F14242A7F2A41
:10008000122313086462364955225000050300000C
:10009000001C2241000041221C0014083E081408E4
:1000A000083E0808005030000008080808080060F2
:1000B00060000020100804023E5149453E00427F86
:1000C000400042615149462141454B311814127F8D
:1000D0001027454545393C4A494930017109050316
:1000E0003649494936064949291E0036360000007E
:1000F0005636000008142241001414141414004150
:100100002214080201510906324979413E7E11113B
:10011000117E7F494949363E414141227F4141227A
:100120001C7F494949417F090909013E4149497AF2
:100130007F0808087F00417F41002040413F017F48
:10014000081422417F404040407F020C027F7F0420
:1001500008107F3E4141413E7F090909063E415159
:10016000215E7F09192946464949493101017F012C
:10017000013F4040403F1F2040201F3F4038403F4C
:100180006314081463070870080761514945430068
:100190007F41410002040810200041417F00040219
:1001A0000102044040404040000102040020545439
:1001B00054787F48444438384444442038444448C0
:1001C0007F3854545418087E0901020C5252523E92
:1001D0007F0804047800447D40002040443D007FB7
:1001E0001028440000417F40007C041804787C08FB
:1001F00004047838444444387C1414140808141453
:10020000187C7C080404084854545420043F44409B
:10021000203C4040207C1C2040201C3C4030403C86
:1002200044281028440C5050503C4464544C440022
:100230000836410000007F00000041360800100829
:10024000081008000000000011241FBECFEFD8E006
:10025000DEBFCDBF11E0A0E0B1E0EAE5F9E002C009
:1002600005900D92AC31B107D9F723E0ACE1B1E0D4
:1002700001C01D92AB35B207E1F70E94F6020C9463
:10028000AB040C9400000895CF93DF93EC01682F2A
:1002900080E00E94DC0263E083E191E00E94CC02F6
:1002A0006C2F8FE00E94DC0263E083E191E00E940A
:1002B000CC026C2F8EE10E94DC0263E083E191E0CE
:1002C0000E94CC026C2F8DE20E94DC0263E083E18D
:1002D00091E00E94CC026C2F8CE30E94DC0263E070
:1002E00083E191E00E94CC026C2F8BE40E94DC023F
:1002F00062E083E191E00E94CC02DF91CF910C9407
:10030000E1020E942F0465E070E00E949F034FE02D
:10031000489F9001499F300D1124C901049608950A
:1003200029986623A9F02B9A27E030E090E0AC01F1
:10033000022E02C0559547950A94E2F740FF0AC085
:100340002C9A2D9A2D982150310988F7299A0895D1
:100350002B98EACF2C98F5CF60E00C949001CF93C6
:10036000DF93219A229A239A249A259A2A9A299AE3
:100370008FE39CE90197F1F700C000002A989FEFF6
:100380002AE683E0915020408040E1F700C0000061
:100390002A9A299881E20E94AC0183E10E94AC0173
:1003A00086E00E94AC0182EC0E94AC0180E20E94D7
:1003B000AC0189E00E94AC0180E80E94AC0180E4BD
:1003C0000E94AC01C8EFD1E061E080E00E949001A2
:1003D0002197D1F788E00E94AC018CE0DF91CF91AA
:1003E0000C94AC0180E80E94AC0180E40E94AC0156
:1003F0001092590310925A03E1E6F1E088EF91E080
:10040000DF019C011D9221503040E1F708958111D8
:1004100003C084E20C94AC0180E2FCCF962F969549
:1004200096959695E82FF0E084E5989FE00DF11DF4
:100430001124EF59FE4F2081677081E090E001C0E8
:10044000880F6A95EAF7442319F0282B2083089532
:1004500080952823FBCF8F929F92AF92BF92DF921D
:10046000EF92FF920F931F93CF93DF9300D000D0B2
:100470000F92CDB7DEB7E82FF62E80320CF44DC0C8
:10048000E05285E0E802B001112468597F4F45E051
:1004900050E0CE0101960E943F048E010F5F1F4F76
:1004A00095E0F99E5001112487E0F89E4001112447
:1004B000E12CEA141B040CF463C0809159038F5F94
:1004C0009F2D990F990F9F0D890F809359038435A4
:1004D00058F080915A03109259038F5F97E0F99E6C
:1004E000800D112480935A0380915A03803320F0A9
:1004F0001092590310925A030F900F900F900F9083
:100500000F90DF91CF911F910F91FF90EF90DF90AF
:10051000BF90AF909F908F900895EE0FFF0BEF5D0F
:10052000FE4F008111810115110509F0B9CF45E099
:1005300050E068E670E0ADCFED0D5E0D8E2D6F2DB5
:100540000E949303D801A80FB11D2C9130E08D2D8E
:100550000E94930302C0359527958A95E2F741E002
:1005600020FF40E06E2F852F0E940E02D394E09171
:100570005A0350915903D8141904F4F2E39499CF13
:10058000D12CF5CFE82F803234F4EE0FFF0BEF5D66
:10059000FE4F7183608308951F93CF93DF93162FCF
:1005A000EC018991811104C0DF91CF911F910895D1
:1005B000612F0E942B02F5CF8093590360935A0359
:1005C0000895CF93DF9380E80E94AC0180E40E94FD
:1005D000AC01C1E6D1E061E089910E94900183E025
:1005E000C935D807C1F7DF91CF910895579856982C
:1005F000219A229A0E94AF010E94F20160E071E00C
:1006000083E00E94C20290E080E00E9444018CE0FE
:1006100090E00E94440188E190E00E94440184E25D
:1006200090E00E94440165E071E082E00E94C20215
:1006300065E282E20E94DC0262E085E191E00E94D4
:10064000CC020E94E1026AE071E085E00E94C202F1
:100650006CE171E086E00E94C20210E0C2E2D0E0EC
:100660000E948101612F0E94DC022FEF81EE94E055
:10067000215080409040E1F700C0000062E087E137
:1006800091E00E94CC020E94E1024F9B24C0CE0167
:100690000497CD9760F465E28C2F0E94DC0262E043
:1006A00089E191E00E94CC020E94E1022F9765E26D
:1006B0008C2F0E94DC0262E085E191E00E94CC0276
:1006C0000E94E1022FEF89E698E12150804090409E
:1006D000E1F700C000004E9B24C0CE010497CD97E7
:1006E00060F465E28C2F0E94DC0262E089E191E017
:1006F0000E94CC020E94E1022F9665E28C2F0E949C
:10070000DC0262E085E191E00E94CC020E94E102FD
:100710002FEF89E698E1215080409040E1F700C03A
:1007200000001F5F9DCF991B79E004C0991F9617A9
:1007300008F0961B881F7A95C9F78095089597FB56
:10074000072E16F4009407D077FD09D00E94B3035A
:1007500007FC05D03EF4909581959F4F08957095C4
:1007600061957F4F0895AA1BBB1B51E107C0AA1FCB
:10077000BB1FA617B70710F0A61BB70B881F991F42
:100780005A95A9F780959095BC01CD010895CF9217
:10079000DF92EF92FF92CF93DF93CDB7DEB72A9728
:1007A0000FB6F894DEBF0FBECDBF89879A87A985A3
:1007B000BA852D913D914D915C9129833A834B836C
:1007C0005C83232B242B252B41F424E239ED4BE5CC
:1007D00057E029833A834B835C8369817A818B81DB
:1007E0009C812DE133EF41E050E00E944804690113
:1007F0007A01A7EAB1E49B01AC010E946704698316
:100800007A838B839C83ACEEB4EFA70196010E94A0
:1008100075049B01AC0189819A81AB81BC81820FF7
:10082000931FA41FB51FB7FF03C00197A109B048CC
:10083000E985FA8580839183A283B3839F772A9683
:100840000FB6F894DEBF0FBECDBFDF91CF91FF9002
:10085000EF90DF90CF9008950E94C70308958FE036
:1008600091E00E94C7030895B0E0A0E080930F01DB
:1008700090931001A0931101B09312010895FB0110
:10088000DC0102C005900D9241505040D8F7089508
:10089000052E97FB1EF400940E945F0457FD07D0BD
:1008A0000E947A0407FC03D04EF40C945F04509528
:1008B0004095309521953F4F4F4F5F4F089590954C
:1008C0008095709561957F4F8F4F9F4F08950E943F
:1008D0009C04A59F900DB49F900DA49F800D911D29
:1008E00011240895B7FF0C9467040E946704821BCB
:1008F000930B0895A1E21A2EAA1BBB1BFD010DC08C
:10090000AA1FBB1FEE1FFF1FA217B307E407F507BF
:1009100020F0A21BB30BE40BF50B661F771F881F9B
:10092000991F1A9469F760957095809590959B0131
:10093000AC01BD01CF010895A29FB001B39FC001DA
:10094000A39F700D811D1124911DB29F700D811DFB
:0A0950001124911D0895F894FFCFC3
:10095A00FF000000000E1B1C1F0E103E7E3E100101
:0C096A0000000003000200050006000071
:00000001FF
