:100000000C9424010C9443010C9450010C94410174
:100010000C9441010C9441010C9441010C94E001B9
:100020000C9441010C9441010C9441010C94410148
:100030000C9441010C9441010C9441010C94410138
:100040000C9441010C9441010C9441010C94410128
:100050000C9441010C9441010C9441010C94410118
:100060000C9441010C944101000000000000005F6D
:1000700000000007000700147F147F14242A7F2A41
:10008000122313086462364955225000050300000C
:10009000001C2241000041221C0014083E081408E4
:1000A000083E0808005030000008080808080060F2
:1000B00060000020100804023E5149453E00427F86
:1000C000400042615149462141454B311814127F8D
:1000D0001027454545393C4A494930017109050316
:1000E0003649494936064949291E0036360000007E
:1000F0005636000008142241001414141414004150
:100100002214080201510906324979413E7E11113B
:10011000117E7F494949363E414141227F4141227A
:100120001C7F494949417F090909013E4149497AF2
:100130007F0808087F00417F41002040413F017F48
:10014000081422417F404040407F020C027F7F0420
:1001500008107F3E4141413E7F090909063E415159
:10016000215E7F09192946464949493101017F012C
:10017000013F4040403F1F2040201F3F4038403F4C
:100180006314081463070870080761514945430068
:100190007F41410002040810200041417F00040219
:1001A0000102044040404040000102040020545439
:1001B00054787F48444438384444442038444448C0
:1001C0007F3854545418087E0901020C5252523E92
:1001D0007F0804047800447D40002040443D007FB7
:1001E0001028440000417F40007C041804787C08FB
:1001F00004047838444444387C1414140808141453
:10020000187C7C080404084854545420043F44409B
:10021000203C4040207C1C2040201C3C4030403C86
:1002200044281028440C5050503C4464544C440022
:100230000836410000007F00000041360800100829
:10024000081008000000000011241FBECFEFD8E006
:10025000DEBFCDBF11E0A0E0B1E0E8EAFBE002C004
:1002600005900D92A034B107D9F723E0A0E4B1E0E6
:1002700001C01D92A438B207E1F70E94D1030C948B
:10028000D2050C9400008F938FB78F939F9385B105
:1002900092E0892785B99F918F918FBF8F91189593
:1002A0008F938FB78F939F9385B194E0892785B9FA
:1002B0009F918F918FBF8F91189561E18AE00E9485
:1002C000B70361E085E191E00E94A70369E185E061
:1002D0000E94B70361E080E291E00E94A7030E94C0
:1002E000BC03189902C0189BFCCF0895809141016E
:1002F0009CEF980F9D33B8F4609140010E94B703C2
:1003000062E08DE291E00E94A703609140016C30B1
:1003100050F06C50809141010E94B70362E08FE27F
:1003200091E00C94A7030895CF93DF93EC01682F1D
:1003300080E00E94B70363E081E391E00E94A7039D
:100340006C2F8FE00E94B70363E081E391E00E948D
:10035000A7036C2F8EE10E94B70363E081E391E075
:100360000E94A7036C2F8DE20E94B70363E081E334
:1003700091E00E94A7036C2F8CE30E94B70363E017
:1003800081E391E00E94A7036C2F8BE40E94B703E6
:1003900062E081E391E00E94A703DF91CF910C948A
:1003A000BC030E94560565E070E00E94C6044FE061
:1003B000489F9001499F300D1124C901049608956A
:1003C0001F920F920FB60F9211242F933F934F93CA
:1003D0005F936F937F938F939F93AF93BF93EF93AD
:1003E000FF93809142018F5F809342018436A0F099
:1003F00010924201809143018F5F8C3350F1109233
:100400004301809144018F5F8093440180914001BA
:100410008F5F8093400102C08370C1F380914001DF
:100420008D3330F0109240010E94D1018093410140
:10043000FF91EF91BF91AF919F918F917F916F91BC
:100440005F914F913F912F910F900FBE0F901F9092
:10045000189580934301DACF2091410180910001EA
:100460009091010128171906A9F5809140018A5140
:100470008E3080F50E94CD0261E18AE00E94B703D0
:1004800061E083E391E00E94A70369E185E00E94B7
:10049000B70361E080E291E00E94A7030E94BC03E1
:1004A000189BFECF109240010E94D1018093410120
:1004B0000E94CD0290E080E00E9494018CE090E0E8
:1004C0000E94940188E190E00E94940184E290E00F
:1004D0000C949401089529986623A9F02B9A27E09B
:1004E00030E090E0AC01022E02C0559547950A9489
:1004F000E2F740FF0AC02C9A2D9A2D98215031091D
:1005000088F7299A08952B98EACF2C98F5CF60E0C8
:100510000C946B02CF93DF93219A229A239A249A08
:10052000259A2A9A299A8FE39CE90197F1F700C04E
:1005300000002A989FEF2AE683E0915020408040F7
:10054000E1F700C000002A9A299881E20E94870200
:1005500083E10E94870286E00E94870282EC0E946B
:10056000870280E20E94870289E00E94870280E879
:100570000E94870280E40E948702C8EFD1E061E018
:1005800080E00E946B022197D1F788E00E948702E9
:100590008CE0DF91CF910C94870280E80E94870263
:1005A00080E40E9487021092820310928303EAE89B
:1005B000F1E088EF91E0DF019C011D922150304075
:1005C000E1F70895811103C084E20C94870280E270
:1005D000FCCF962F969596959695E82FF0E084E5BA
:1005E000989FE00DF11D1124E657FE4F20816770A2
:1005F00081E090E001C0880F6A95EAF7442319F082
:10060000282B2083089580952823FBCF8F929F92DB
:10061000AF92BF92DF92EF92FF920F931F93CF930F
:10062000DF9300D000D00F92CDB7DEB7E82FF62EC3
:1006300080320CF44DC0E05285E0E802B001112494
:1006400068597F4F45E050E0CE0101960E94660553
:100650008E010F5F1F4F95E0F99E5001112487E036
:10066000F89E40011124E12CEA141B040CF463C031
:10067000809182038F5F9F2D990F990F9F0D890F96
:1006800080938203843558F0809183031092820313
:100690008F5F97E0F99E800D1124809383038091F2
:1006A0008303803320F010928203109283030F9013
:1006B0000F900F900F900F90DF91CF911F910F919E
:1006C000FF90EF90DF90BF90AF909F908F90089534
:1006D000EE0FFF0BE65BFE4F008111810115110546
:1006E00009F0B9CF45E050E068E670E0ADCFED0D20
:1006F0005E0D8E2D6F2D0E94BA04D801A80FB11D7A
:100700002C9130E08D2D0E94BA0402C035952795BA
:100710008A95E2F741E020FF40E06E2F852F0E948E
:10072000E902D394E091830350918203D814190411
:10073000F4F2E39499CFD12CF5CFE82F803234F442
:10074000EE0FFF0BE65BFE4F7183608308951F93EE
:10075000CF93DF93162FEC018991811104C0DF91B3
:10076000CF911F910895612F0E940603F5CF8093CA
:100770008203609383030895CF93DF9380E80E9400
:10078000870280E40E948702CAE8D1E061E0899193
:100790000E946B0283E0C238D807C1F7DF91CF9186
:1007A0000895579856982098219A229A0E948A0272
:1007B0000E945D01F89428985F985E9883E080938A
:1007C0006900809169008860809369008DB38360BF
:1007D0008DBB789462E071E083E00E949D0390E01D
:1007E00080E00E9494018CE090E00E94940188E1F6
:1007F00090E00E94940184E290E00E94940167E0FE
:1008000071E082E00E949D0365E282E20E94B703EC
:1008100062E08EE391E00E94A7030E94BC036CE0BB
:1008200071E085E00E949D0365E471E086E00E942E
:100830009D0387EA8093B3008091B000826080932B
:10084000B0008091B10087608093B100809170000A
:100850008260809370000E942C020E9476010E94A8
:10086000BC030E942C024F9B33C0809100019091E9
:1008700001010597CC9760F50E942C0265E28091FA
:1008800000010E94B70362E08FE291E00E94A7039B
:100890000E94BC0380910001909101010F979093F9
:1008A00001018093000165E20E94B70362E08EE3DC
:1008B00091E00E94A7030E94BC030E942C022FEF2C
:1008C00080E792E0215080409040E1F700C00000B6
:1008D0000E942C020E9476010E94BC030E942C02FE
:1008E0004E9B33C080910001909101010497CC97F9
:1008F00060F50E942C0265E2809100010E94B7031E
:1009000062E08FE291E00E94A7030E94BC03809105
:100910000001909101010F969093010180930001D5
:1009200065E20E94B70362E08EE391E00E94A703B4
:100930000E94BC030E942C022FEF80E792E021501E
:1009400080409040E1F700C000000E942C020E940D
:1009500076010E94BC0365E2809100010E94B7030A
:1009600062E08EE391E00E94A7030E94BC030E9414
:100970002C0271CF991B79E004C0991F961708F0DB
:10098000961B881F7A95C9F78095089597FB072EC7
:1009900016F4009407D077FD09D00E94DA0407FC12
:1009A00005D03EF4909581959F4F0895709561957F
:1009B0007F4F0895AA1BBB1B51E107C0AA1FBB1F95
:1009C000A617B70710F0A61BB70B881F991F5A95DB
:1009D000A9F780959095BC01CD010895CF92DF9243
:1009E000EF92FF92CF93DF93CDB7DEB72A970FB682
:1009F000F894DEBF0FBECDBF89879A87A985BA85D7
:100A00002D913D914D915C9129833A834B835C8379
:100A1000232B242B252B41F424E239ED4BE557E021
:100A200029833A834B835C8369817A818B819C81A2
:100A30002DE133EF41E050E00E946F0569017A013A
:100A4000A7EAB1E49B01AC010E948E0569837A8319
:100A50008B839C83ACEEB4EFA70196010E949C05AA
:100A60009B01AC0189819A81AB81BC81820F931F6C
:100A7000A41FB51FB7FF03C00197A109B048E985BE
:100A8000FA8580839183A283B3839F772A960FB6DA
:100A9000F894DEBF0FBECDBFDF91CF91FF90EF90F6
:100AA000DF90CF9008950E94EE04089581E191E0D7
:100AB0000E94EE040895B0E0A0E0809311019093AD
:100AC0001201A0931301B09314010895FB01DC01FE
:100AD00002C005900D9241505040D8F70895052E60
:100AE00097FB1EF400940E94860557FD07D00E94D4
:100AF000A10507FC03D04EF40C9486055095409553
:100B0000309521953F4F4F4F5F4F089590958095B9
:100B1000709561957F4F8F4F9F4F08950E94C30539
:100B2000A59F900DB49F900DA49F800D911D112441
:100B30000895B7FF0C948E050E948E05821B930BBF
:100B40000895A1E21A2EAA1BBB1BFD010DC0AA1F0E
:100B5000BB1FEE1FFF1FA217B307E407F50720F026
:100B6000A21BB30BE40BF50B661F771F881F991FA1
:100B70001A9469F760957095809590959B01AC01EA
:100B8000BD01CF010895A29FB001B39FC001A39FF3
:100B9000700D811D1124911DB29F700D811D1124B6
:080BA000911D0895F894FFCFA8
:100BA8002200FF000000000E1B1C1F0E103E7E3EA0
:100BB800100100000042656D2076696E646F2100A7
:100BC8004170657274652073746172740005000663
:100BD80000030047414D45204F5645522100020071
:00000001FF
